:060000000A128A11F62F1E
:100CF000F00070089900080081309F00433083168F
:100D00009F0008000713871719309900181518124B
:100D100083129817831698168312181683161813C1
:100D20008312181308000030710203300319700297
:100D3000031CA02E0130F0070318F10A0030F10760
:100D400000307102083003197002031CAA2EF00152
:100D5000F10108008530F2007208831203139F0529
:100D60007008F20002300310F20DFF3E031DB32E97
:100D70000310720DF30073089F04433083169F0025
:100D80000330F3009730F200F20BC42EF30BC42EA5
:100D9000C92E831203131F151F19CC2E1E08F20033
:100DA000F3017208F0007308F1000800FB01FC0178
:100DB0007D08F900FA017908F0007A08F1000A12BA
:100DC0008A1193260A128A118312031325087007C9
:100DD000A50026080318260A7107A6000D30FA00A0
:100DE000FB30F900F90BF22EFA0BF22EF72E013040
:100DF000FB070318FC0A0030FC077C08803AFF0060
:100E000080307F02031D062F0A307B02031CD82E80
:100E10000A30F0000030F100831203132608F300BB
:100E20002508F2000A128A111C277008F9007908B7
:100E3000A700A501A6010800F601F11F262FF00961
:100E4000F109F00A0319F10AF601F60AF31F312F2E
:100E5000F209F309F20A0319F30A0130F4007408E5
:100E6000F606F701F801700871040319682FF501FF
:100E7000F50AF11B472F01300310F00DF10DFF3E75
:100E8000031D3C2F0130F4007408F507392F0130A1
:100E90000310F70DF80DFF3E031D482F7108730274
:100EA000031D542F70087202031C5D2F7008F2029C
:100EB0007108031CF303F302771401300310F10CE3
:100EC000F00CFF3E031D5E2F0130F502031D472F7E
:100ED00076080319702FF709F809F70A0319F80AB9
:100EE0007808F1007708F000080083168601880171
:100EF00087010A128A1182260A128A110A128A119D
:100F00007C260A128A1161308312A0002008A800F2
:100F1000043083120313A2000C30A1003330A00070
:100F2000A00B902FA10B902FA20B902F8230831239
:100F30000313A100DD30A000A00B9C2FA10B9C2F60
:100F4000FD0104307D020318A02F0A128A11D62653
:100F50000A128A11A301A4018312031328080A129A
:100F60008A1178260A128A110D3083120313A10008
:100F7000FB30A000A00BBA2FA10BBA2F01308312B7
:100F80000313A0002008A80769302802031CCC2FF7
:100F90006130A0002008A8000130A3070318A40AAC
:100FA0000030A4072408803AFF0080307F02031D30
:100FB000DB2F02302302031CAC2F831203132708FC
:100FC0000A128A1178260A128A11823083120313B8
:100FD000A100DD30A000A00BEB2FA10BEB2F013007
:100FE00083120313A0002008FD07A12FFD01831227
:100FF0000313A501A601A70183010A128A11752F07
:02400E00F13F80
:00000001FF
